{
  "_format": "hh-sol-artifact-1",
  "contractName": "Messenger",
  "sourceName": "contracts/Messenger.sol",
  "abi": [
    {
      "anonymous": false,
      "inputs": [
        {
          "indexed": true,
          "internalType": "address",
          "name": "sender",
          "type": "address"
        },
        {
          "indexed": true,
          "internalType": "address",
          "name": "recipient",
          "type": "address"
        },
        {
          "indexed": false,
          "internalType": "string",
          "name": "message",
          "type": "string"
        }
      ],
      "name": "ChatMessageSent",
      "type": "event"
    },
    {
      "anonymous": false,
      "inputs": [
        {
          "indexed": false,
          "internalType": "address",
          "name": "sender",
          "type": "address"
        },
        {
          "indexed": false,
          "internalType": "address",
          "name": "recipient",
          "type": "address"
        }
      ],
      "name": "FriendRequestAccepted",
      "type": "event"
    },
    {
      "anonymous": false,
      "inputs": [
        {
          "indexed": false,
          "internalType": "address",
          "name": "sender",
          "type": "address"
        },
        {
          "indexed": false,
          "internalType": "address",
          "name": "recipient",
          "type": "address"
        }
      ],
      "name": "FriendRequestSent",
      "type": "event"
    },
    {
      "inputs": [
        {
          "internalType": "uint256",
          "name": "_index",
          "type": "uint256"
        }
      ],
      "name": "acceptFriendRequest",
      "outputs": [],
      "stateMutability": "nonpayable",
      "type": "function"
    },
    {
      "inputs": [
        {
          "internalType": "uint256",
          "name": "",
          "type": "uint256"
        }
      ],
      "name": "chatMessages",
      "outputs": [
        {
          "internalType": "address",
          "name": "sender",
          "type": "address"
        },
        {
          "internalType": "address",
          "name": "recipient",
          "type": "address"
        },
        {
          "internalType": "uint256",
          "name": "timestamp",
          "type": "uint256"
        },
        {
          "internalType": "string",
          "name": "message",
          "type": "string"
        }
      ],
      "stateMutability": "view",
      "type": "function"
    },
    {
      "inputs": [
        {
          "internalType": "uint256",
          "name": "",
          "type": "uint256"
        }
      ],
      "name": "friendRequests",
      "outputs": [
        {
          "internalType": "address",
          "name": "sender",
          "type": "address"
        },
        {
          "internalType": "address",
          "name": "recipient",
          "type": "address"
        },
        {
          "internalType": "bool",
          "name": "accepted",
          "type": "bool"
        }
      ],
      "stateMutability": "view",
      "type": "function"
    },
    {
      "inputs": [
        {
          "internalType": "address",
          "name": "",
          "type": "address"
        },
        {
          "internalType": "address",
          "name": "",
          "type": "address"
        }
      ],
      "name": "friends",
      "outputs": [
        {
          "internalType": "bool",
          "name": "",
          "type": "bool"
        }
      ],
      "stateMutability": "view",
      "type": "function"
    },
    {
      "inputs": [
        {
          "internalType": "address",
          "name": "_recipient",
          "type": "address"
        }
      ],
      "name": "getChatMessages",
      "outputs": [
        {
          "components": [
            {
              "internalType": "address",
              "name": "sender",
              "type": "address"
            },
            {
              "internalType": "address",
              "name": "recipient",
              "type": "address"
            },
            {
              "internalType": "uint256",
              "name": "timestamp",
              "type": "uint256"
            },
            {
              "internalType": "string",
              "name": "message",
              "type": "string"
            }
          ],
          "internalType": "struct Messenger.ChatMessage[]",
          "name": "",
          "type": "tuple[]"
        }
      ],
      "stateMutability": "view",
      "type": "function"
    },
    {
      "inputs": [
        {
          "internalType": "address",
          "name": "_recipient",
          "type": "address"
        },
        {
          "internalType": "string",
          "name": "_message",
          "type": "string"
        }
      ],
      "name": "sendChatMessage",
      "outputs": [],
      "stateMutability": "nonpayable",
      "type": "function"
    },
    {
      "inputs": [
        {
          "internalType": "address",
          "name": "_recipient",
          "type": "address"
        }
      ],
      "name": "sendFriendRequest",
      "outputs": [],
      "stateMutability": "nonpayable",
      "type": "function"
    }
  ],
  "bytecode": "0x608060405234801561001057600080fd5b50611d7b806100206000396000f3fe608060405234801561001057600080fd5b506004361061007d5760003560e01c8063b7d2f8761161005b578063b7d2f876146100d6578063c49d9ff814610106578063d116665314610139578063dc5bd536146101695761007d565b80632b5aeab7146100825780637b475dec1461009e578063837b770a146100ba575b600080fd5b61009c60048036038101906100979190611221565b61019b565b005b6100b860048036038101906100b391906113f2565b6104ff565b005b6100d460048036038101906100cf919061144e565b61075e565b005b6100f060048036038101906100eb919061144e565b6108c5565b6040516100fd919061163d565b60405180910390f35b610120600480360381019061011b9190611221565b610fc5565b60405161013094939291906116c7565b60405180910390f35b610153600480360381019061014e9190611713565b6110cd565b604051610160919061176e565b60405180910390f35b610183600480360381019061017e9190611221565b6110fc565b60405161019293929190611789565b60405180910390f35b6000600182815481106101b1576101b06117c0565b5b906000526020600020906002020190503373ffffffffffffffffffffffffffffffffffffffff168160010160009054906101000a900473ffffffffffffffffffffffffffffffffffffffff1673ffffffffffffffffffffffffffffffffffffffff1614610253576040517f08c379a000000000000000000000000000000000000000000000000000000000815260040161024a90611861565b60405180910390fd5b8060010160149054906101000a900460ff16156102a5576040517f08c379a000000000000000000000000000000000000000000000000000000000815260040161029c906118f3565b60405180910390fd5b60018160010160146101000a81548160ff02191690831515021790555060016000808360000160009054906101000a900473ffffffffffffffffffffffffffffffffffffffff1673ffffffffffffffffffffffffffffffffffffffff1673ffffffffffffffffffffffffffffffffffffffff16815260200190815260200160002060008360010160009054906101000a900473ffffffffffffffffffffffffffffffffffffffff1673ffffffffffffffffffffffffffffffffffffffff1673ffffffffffffffffffffffffffffffffffffffff16815260200190815260200160002060006101000a81548160ff02191690831515021790555060016000808360010160009054906101000a900473ffffffffffffffffffffffffffffffffffffffff1673ffffffffffffffffffffffffffffffffffffffff1673ffffffffffffffffffffffffffffffffffffffff16815260200190815260200160002060008360000160009054906101000a900473ffffffffffffffffffffffffffffffffffffffff1673ffffffffffffffffffffffffffffffffffffffff1673ffffffffffffffffffffffffffffffffffffffff16815260200190815260200160002060006101000a81548160ff0219169083151502179055507f4738efa342d2c6adcb0441cad1723818b7f5b5d6d846c0005945b21d6642e79d8160000160009054906101000a900473ffffffffffffffffffffffffffffffffffffffff168260010160009054906101000a900473ffffffffffffffffffffffffffffffffffffffff166040516104f3929190611913565b60405180910390a15050565b6000803373ffffffffffffffffffffffffffffffffffffffff1673ffffffffffffffffffffffffffffffffffffffff16815260200190815260200160002060008373ffffffffffffffffffffffffffffffffffffffff1673ffffffffffffffffffffffffffffffffffffffff16815260200190815260200160002060009054906101000a900460ff166105c7576040517f08c379a00000000000000000000000000000000000000000000000000000000081526004016105be906119ae565b60405180910390fd5b600060405180608001604052803373ffffffffffffffffffffffffffffffffffffffff1681526020018473ffffffffffffffffffffffffffffffffffffffff168152602001428152602001838152509050600281908060018154018082558091505060019003906000526020600020906004020160009091909190915060008201518160000160006101000a81548173ffffffffffffffffffffffffffffffffffffffff021916908373ffffffffffffffffffffffffffffffffffffffff16021790555060208201518160010160006101000a81548173ffffffffffffffffffffffffffffffffffffffff021916908373ffffffffffffffffffffffffffffffffffffffff1602179055506040820151816002015560608201518160030190816106f19190611bda565b5050508273ffffffffffffffffffffffffffffffffffffffff163373ffffffffffffffffffffffffffffffffffffffff167f1ef79e1317e9eea45209c1d3cf8d88abfb543996155a8f9ad94216b450bc67a6846040516107519190611cac565b60405180910390a3505050565b600060405180606001604052803373ffffffffffffffffffffffffffffffffffffffff1681526020018373ffffffffffffffffffffffffffffffffffffffff168152602001600015158152509050600181908060018154018082558091505060019003906000526020600020906002020160009091909190915060008201518160000160006101000a81548173ffffffffffffffffffffffffffffffffffffffff021916908373ffffffffffffffffffffffffffffffffffffffff16021790555060208201518160010160006101000a81548173ffffffffffffffffffffffffffffffffffffffff021916908373ffffffffffffffffffffffffffffffffffffffff16021790555060408201518160010160146101000a81548160ff02191690831515021790555050507f2b4b3b31b7040b3566331c8302dff4a575764757795335d5e9184fd4174c33b233836040516108b9929190611913565b60405180910390a15050565b60606000803373ffffffffffffffffffffffffffffffffffffffff1673ffffffffffffffffffffffffffffffffffffffff16815260200190815260200160002060008373ffffffffffffffffffffffffffffffffffffffff1673ffffffffffffffffffffffffffffffffffffffff16815260200190815260200160002060009054906101000a900460ff1661098f576040517f08c379a0000000000000000000000000000000000000000000000000000000008152600401610986906119ae565b60405180910390fd5b6000805b600280549050811015610bae573373ffffffffffffffffffffffffffffffffffffffff16600282815481106109cb576109ca6117c0565b5b906000526020600020906004020160000160009054906101000a900473ffffffffffffffffffffffffffffffffffffffff1673ffffffffffffffffffffffffffffffffffffffff16148015610a9057508373ffffffffffffffffffffffffffffffffffffffff1660028281548110610a4657610a456117c0565b5b906000526020600020906004020160010160009054906101000a900473ffffffffffffffffffffffffffffffffffffffff1673ffffffffffffffffffffffffffffffffffffffff16145b80610b8757508373ffffffffffffffffffffffffffffffffffffffff1660028281548110610ac157610ac06117c0565b5b906000526020600020906004020160000160009054906101000a900473ffffffffffffffffffffffffffffffffffffffff1673ffffffffffffffffffffffffffffffffffffffff16148015610b8657503373ffffffffffffffffffffffffffffffffffffffff1660028281548110610b3c57610b3b6117c0565b5b906000526020600020906004020160010160009054906101000a900473ffffffffffffffffffffffffffffffffffffffff1673ffffffffffffffffffffffffffffffffffffffff16145b5b15610b9b578180610b9790611cfd565b9250505b8080610ba690611cfd565b915050610993565b5060008167ffffffffffffffff811115610bcb57610bca6112c7565b5b604051908082528060200260200182016040528015610c0457816020015b610bf1611183565b815260200190600190039081610be95790505b5090506000805b600280549050811015610fb9573373ffffffffffffffffffffffffffffffffffffffff1660028281548110610c4357610c426117c0565b5b906000526020600020906004020160000160009054906101000a900473ffffffffffffffffffffffffffffffffffffffff1673ffffffffffffffffffffffffffffffffffffffff16148015610d0857508573ffffffffffffffffffffffffffffffffffffffff1660028281548110610cbe57610cbd6117c0565b5b906000526020600020906004020160010160009054906101000a900473ffffffffffffffffffffffffffffffffffffffff1673ffffffffffffffffffffffffffffffffffffffff16145b80610dff57508573ffffffffffffffffffffffffffffffffffffffff1660028281548110610d3957610d386117c0565b5b906000526020600020906004020160000160009054906101000a900473ffffffffffffffffffffffffffffffffffffffff1673ffffffffffffffffffffffffffffffffffffffff16148015610dfe57503373ffffffffffffffffffffffffffffffffffffffff1660028281548110610db457610db36117c0565b5b906000526020600020906004020160010160009054906101000a900473ffffffffffffffffffffffffffffffffffffffff1673ffffffffffffffffffffffffffffffffffffffff16145b5b15610fa65760028181548110610e1857610e176117c0565b5b90600052602060002090600402016040518060800160405290816000820160009054906101000a900473ffffffffffffffffffffffffffffffffffffffff1673ffffffffffffffffffffffffffffffffffffffff1673ffffffffffffffffffffffffffffffffffffffff1681526020016001820160009054906101000a900473ffffffffffffffffffffffffffffffffffffffff1673ffffffffffffffffffffffffffffffffffffffff1673ffffffffffffffffffffffffffffffffffffffff16815260200160028201548152602001600382018054610ef7906119fd565b80601f0160208091040260200160405190810160405280929190818152602001828054610f23906119fd565b8015610f705780601f10610f4557610100808354040283529160200191610f70565b820191906000526020600020905b815481529060010190602001808311610f5357829003601f168201915b505050505081525050838381518110610f8c57610f8b6117c0565b5b60200260200101819052508180610fa290611cfd565b9250505b8080610fb190611cfd565b915050610c0b565b50819350505050919050565b60028181548110610fd557600080fd5b90600052602060002090600402016000915090508060000160009054906101000a900473ffffffffffffffffffffffffffffffffffffffff16908060010160009054906101000a900473ffffffffffffffffffffffffffffffffffffffff169080600201549080600301805461104a906119fd565b80601f0160208091040260200160405190810160405280929190818152602001828054611076906119fd565b80156110c35780601f10611098576101008083540402835291602001916110c3565b820191906000526020600020905b8154815290600101906020018083116110a657829003601f168201915b5050505050905084565b60006020528160005260406000206020528060005260406000206000915091509054906101000a900460ff1681565b6001818154811061110c57600080fd5b90600052602060002090600202016000915090508060000160009054906101000a900473ffffffffffffffffffffffffffffffffffffffff16908060010160009054906101000a900473ffffffffffffffffffffffffffffffffffffffff16908060010160149054906101000a900460ff16905083565b6040518060800160405280600073ffffffffffffffffffffffffffffffffffffffff168152602001600073ffffffffffffffffffffffffffffffffffffffff16815260200160008152602001606081525090565b6000604051905090565b600080fd5b600080fd5b6000819050919050565b6111fe816111eb565b811461120957600080fd5b50565b60008135905061121b816111f5565b92915050565b600060208284031215611237576112366111e1565b5b60006112458482850161120c565b91505092915050565b600073ffffffffffffffffffffffffffffffffffffffff82169050919050565b60006112798261124e565b9050919050565b6112898161126e565b811461129457600080fd5b50565b6000813590506112a681611280565b92915050565b600080fd5b600080fd5b6000601f19601f8301169050919050565b7f4e487b7100000000000000000000000000000000000000000000000000000000600052604160045260246000fd5b6112ff826112b6565b810181811067ffffffffffffffff8211171561131e5761131d6112c7565b5b80604052505050565b60006113316111d7565b905061133d82826112f6565b919050565b600067ffffffffffffffff82111561135d5761135c6112c7565b5b611366826112b6565b9050602081019050919050565b82818337600083830152505050565b600061139561139084611342565b611327565b9050828152602081018484840111156113b1576113b06112b1565b5b6113bc848285611373565b509392505050565b600082601f8301126113d9576113d86112ac565b5b81356113e9848260208601611382565b91505092915050565b60008060408385031215611409576114086111e1565b5b600061141785828601611297565b925050602083013567ffffffffffffffff811115611438576114376111e6565b5b611444858286016113c4565b9150509250929050565b600060208284031215611464576114636111e1565b5b600061147284828501611297565b91505092915050565b600081519050919050565b600082825260208201905092915050565b6000819050602082019050919050565b6114b08161126e565b82525050565b6114bf816111eb565b82525050565b600081519050919050565b600082825260208201905092915050565b60005b838110156114ff5780820151818401526020810190506114e4565b60008484015250505050565b6000611516826114c5565b61152081856114d0565b93506115308185602086016114e1565b611539816112b6565b840191505092915050565b600060808301600083015161155c60008601826114a7565b50602083015161156f60208601826114a7565b50604083015161158260408601826114b6565b506060830151848203606086015261159a828261150b565b9150508091505092915050565b60006115b38383611544565b905092915050565b6000602082019050919050565b60006115d38261147b565b6115dd8185611486565b9350836020820285016115ef85611497565b8060005b8581101561162b578484038952815161160c85826115a7565b9450611617836115bb565b925060208a019950506001810190506115f3565b50829750879550505050505092915050565b6000602082019050818103600083015261165781846115c8565b905092915050565b6116688161126e565b82525050565b611677816111eb565b82525050565b600082825260208201905092915050565b6000611699826114c5565b6116a3818561167d565b93506116b38185602086016114e1565b6116bc816112b6565b840191505092915050565b60006080820190506116dc600083018761165f565b6116e9602083018661165f565b6116f6604083018561166e565b8181036060830152611708818461168e565b905095945050505050565b6000806040838503121561172a576117296111e1565b5b600061173885828601611297565b925050602061174985828601611297565b9150509250929050565b60008115159050919050565b61176881611753565b82525050565b6000602082019050611783600083018461175f565b92915050565b600060608201905061179e600083018661165f565b6117ab602083018561165f565b6117b8604083018461175f565b949350505050565b7f4e487b7100000000000000000000000000000000000000000000000000000000600052603260045260246000fd5b7f596f7520617265206e6f7420617574686f72697a656420746f2061636365707460008201527f207468697320726571756573742e000000000000000000000000000000000000602082015250565b600061184b602e8361167d565b9150611856826117ef565b604082019050919050565b6000602082019050818103600083015261187a8161183e565b9050919050565b7f5468697320726571756573742068617320616c7265616479206265656e20616360008201527f6365707465642e00000000000000000000000000000000000000000000000000602082015250565b60006118dd60278361167d565b91506118e882611881565b604082019050919050565b6000602082019050818103600083015261190c816118d0565b9050919050565b6000604082019050611928600083018561165f565b611935602083018461165f565b9392505050565b7f596f7520617265206e6f7420667269656e64732077697468207468697320757360008201527f65722e0000000000000000000000000000000000000000000000000000000000602082015250565b600061199860238361167d565b91506119a38261193c565b604082019050919050565b600060208201905081810360008301526119c78161198b565b9050919050565b7f4e487b7100000000000000000000000000000000000000000000000000000000600052602260045260246000fd5b60006002820490506001821680611a1557607f821691505b602082108103611a2857611a276119ce565b5b50919050565b60008190508160005260206000209050919050565b60006020601f8301049050919050565b600082821b905092915050565b600060088302611a907fffffffffffffffffffffffffffffffffffffffffffffffffffffffffffffffff82611a53565b611a9a8683611a53565b95508019841693508086168417925050509392505050565b6000819050919050565b6000611ad7611ad2611acd846111eb565b611ab2565b6111eb565b9050919050565b6000819050919050565b611af183611abc565b611b05611afd82611ade565b848454611a60565b825550505050565b600090565b611b1a611b0d565b611b25818484611ae8565b505050565b5b81811015611b4957611b3e600082611b12565b600181019050611b2b565b5050565b601f821115611b8e57611b5f81611a2e565b611b6884611a43565b81016020851015611b77578190505b611b8b611b8385611a43565b830182611b2a565b50505b505050565b600082821c905092915050565b6000611bb160001984600802611b93565b1980831691505092915050565b6000611bca8383611ba0565b9150826002028217905092915050565b611be3826114c5565b67ffffffffffffffff811115611bfc57611bfb6112c7565b5b611c0682546119fd565b611c11828285611b4d565b600060209050601f831160018114611c445760008415611c32578287015190505b611c3c8582611bbe565b865550611ca4565b601f198416611c5286611a2e565b60005b82811015611c7a57848901518255600182019150602085019450602081019050611c55565b86831015611c975784890151611c93601f891682611ba0565b8355505b6001600288020188555050505b505050505050565b60006020820190508181036000830152611cc6818461168e565b905092915050565b7f4e487b7100000000000000000000000000000000000000000000000000000000600052601160045260246000fd5b6000611d08826111eb565b91507fffffffffffffffffffffffffffffffffffffffffffffffffffffffffffffffff8203611d3a57611d39611cce565b5b60018201905091905056fea26469706673582212202be151d2802c506ce0118989da1663ffc8d34d38dbe2f0da94c8f4f2564f8b1964736f6c63430008120033",
  "linkReferences": {},
  "deployedLinkReferences": {}
}